:020000040800F2
:10000000000001200D100008354B0008414B00088E
:10001000474B00084D4B0008534B00080000000000
:10002000000000000000000000000000594B000824
:10003000654B000800000000714B00087D4B000874
:100040005D1000085D1000085D1000085D100008DC
:100050005D1000085D1000085D1000085D100008CC
:100060005D1000085D1000085D1000085D100008BC
:100070005D1000085D1000085D1000085D100008AC
:100080008D4B00085D1000085D1000085D10000831
:100090005D1000085D1000085D1000085D1000088C
:1000A0005D1000085D1000085D1000085D1000087C
:1000B0005D10000800000000000000005D10000856
:1000C0005D10000800000000000000005D10000846
:1000D000000000005D1000085D1000080000000036
:1000E0005D1000085D100008000000000000000026
:1000F0000000000000000000000000000000000000
:100100000000000000000000000000005D1000087A
:1001100000000000000000005D1000085D100008F5
:100120005D1000085D1000085D1000085D100008FB
:100130005D1000080000000000000000000000004A
:100140005D1000085D1000085D1000085D100008DB
:100150005D1000085D1000085D1000085D100008CB
:100160005D1000085D1000085D1000080000000030
:100170005D1000085D100008000000000000000095
:100180005D1000085D1000085D1000080000000010
:1001900010B5054C237833B9044B13B10448AFF3C1
:1001A00000800123237010BD080300200000000020
:1001B00054D2000808B5034B1BB103490348AFF301
:1001C000008008BD000000000C03002054D200088D
:1001D00081F0004102E000BF83F0004330B54FEAF8
:1001E00041044FEA430594EA050F08BF90EA020F65
:1001F0001FBF54EA000C55EA020C7FEA645C7FEAF8
:10020000655C00F0E2804FEA5454D4EB5555B8BF1A
:100210006D420CDD2C4480EA020281EA030382EA8B
:10022000000083EA010180EA020281EA0303362D1D
:1002300088BF30BD11F0004F4FEA01314FF4801CF0
:100240004CEA113102D0404261EB410113F0004F02
:100250004FEA03334CEA133302D0524263EB4303B9
:1002600094EA050F00F0A780A4F10104D5F1200E57
:100270000DDB02FA0EFC22FA05F2801841F10001B2
:1002800003FA0EF2801843FA05F359410EE0A5F186
:1002900020050EF1200E012A03FA0EFC28BF4CF0B7
:1002A000020C43FA05F3C01851EBE37101F000456D
:1002B00007D54FF0000EDCF1000C7EEB00006EEB7A
:1002C0000101B1F5801F1BD3B1F5001F0CD3490804
:1002D0005FEA30004FEA3C0C04F101044FEA44525B
:1002E00012F5800F80F09A80BCF1004F08BF5FEAE2
:1002F000500C50F1000041EB045141EA050130BDC2
:100300005FEA4C0C404141EB0101013C28BFB1F5D3
:10031000801FE9D291F0000F04BF01460020B1FA1E
:1003200081F308BF2033A3F10B03B3F120020CDAF1
:100330000C3208DD02F1140CC2F10C0201FA0CF0CF
:1003400021FA02F10CE002F11402D8BFC2F1200C34
:1003500001FA02F120FA0CFCDCBF41EA0C019040EA
:10036000E41AA2BF01EB0451294330BD6FEA040433
:100370001F3C1CDA0C340EDC04F11404C4F120021E
:1003800020FA04F001FA02F340EA030021FA04F330
:1003900045EA030130BDC4F10C04C4F1200220FA87
:1003A00002F001FA04F340EA0300294630BD21FAC5
:1003B00004F0294630BD94F0000F83F4801306BF8B
:1003C00081F480110134013D4EE77FEA645C18BF7F
:1003D0007FEA655C29D094EA050F08BF90EA020F16
:1003E00005D054EA000C04BF1946104630BD91EA0E
:1003F000030F1EBF0021002030BD5FEA545C05D111
:100400004000494128BF41F0004130BD14F580044F
:100410003CBF01F5801130BD01F0004545F0FE41C3
:1004200041F470014FF0000030BD7FEA645C1ABFF8
:10043000194610467FEA655C1CBF0B46024650EA2F
:10044000013406BF52EA033591EA030F41F400215B
:1004500030BD00BF90F0000F04BF0021704730B5E1
:100460004FF4806404F132044FF000054FF00001B6
:1004700050E700BF90F0000F04BF0021704730B577
:100480004FF4806404F1320410F0004548BF40424C
:100490004FF000013EE700BF42004FEAE2014FEAA1
:1004A00031014FEA02701FBF12F07F4393F07F4F7C
:1004B00081F06051704732F07F4208BF704793F07F
:1004C0007F4F04BF41F40021704730B54FF4607492
:1004D00001F0004521F000411CE700BF50EA010295
:1004E00008BF704730B54FF000050AE050EA01023E
:1004F00008BF704730B511F0004502D5404261EBAE
:1005000041014FF4806404F132045FEA915C3FF4EE
:10051000D8AE4FF003025FEADC0C18BF03325FEA8B
:10052000DC0C18BF033202EBDC02C2F1200300FA3C
:1005300003FC20FA02F001FA03FE40EA0E0021FA61
:1005400002F11444BDE600BF70B54FF0FF0C4CF44F
:10055000E06C1CEA11541DBF1CEA135594EA0C0F01
:1005600095EA0C0F00F0DEF82C4481EA030621EA3C
:100570004C5123EA4C5350EA013518BF52EA033577
:1005800041F4801143F4801338D0A0FB02CE4FF029
:100590000005E1FB02E506F00042E0FB03E54FF059
:1005A0000006E1FB03569CF0000F18BF4EF0010E51
:1005B000A4F1FF04B6F5007F64F5407404D25FEA4D
:1005C0004E0E6D4146EB060642EAC62141EA555100
:1005D0004FEAC52040EA5E504FEACE2EB4F1FD0C42
:1005E00088BFBCF5E06F1ED8BEF1004F08BF5FEAC0
:1005F000500E50F1000041EB045170BD06F0004672
:1006000046EA010140EA020081EA0301B4EB5C041E
:10061000C2BFD4EB0C0541EA045170BD41F4801116
:100620004FF0000E013C00F3AB8014F1360FDEBF3B
:10063000002001F0004170BDC4F10004203C35DA17
:100640000C341BDC04F11404C4F1200500FA05F39A
:1006500020FA04F001FA05F240EA020001F000423B
:1006600021F0004110EBD37021FA04F642EB0601B1
:100670005EEA430E08BF20EAD37070BDC4F10C04DB
:10068000C4F1200500FA04F320FA05F001FA04F29F
:1006900040EA020001F0004110EBD37041F100018B
:1006A0005EEA430E08BF20EAD37070BDC4F1200596
:1006B00000FA05F24EEA020E20FA04F301FA05F2FE
:1006C00043EA020321FA04F001F0004121FA04F2A6
:1006D00020EA020000EBD3705EEA430E08BF20EA76
:1006E000D37070BD94F0000F0FD101F000464000B0
:1006F00041EB010111F4801F08BF013CF7D041EA32
:10070000060195F0000F18BF704703F00046520035
:1007100043EB030313F4801F08BF013DF7D043EA06
:100720000603704794EA0C0F0CEA135518BF95EABC
:100730000C0F0CD050EA410618BF52EA4306D1D143
:1007400081EA030101F000414FF0000070BD50EA62
:10075000410606BF1046194652EA430619D094EAEC
:100760000C0F02D150EA013613D195EA0C0F05D1D6
:1007700052EA03361CBF104619460AD181EA03012A
:1007800001F0004141F0FE4141F470014FF00000E2
:1007900070BD41F0FE4141F4780170BD70B54FF07D
:1007A000FF0C4CF4E06C1CEA11541DBF1CEA1355FD
:1007B00094EA0C0F95EA0C0F00F0A7F8A4EB0504DF
:1007C00081EA030E52EA03354FEA013100F08880D6
:1007D0004FEA03334FF0805545EA131343EA12639F
:1007E0004FEA022245EA111545EA10654FEA002654
:1007F0000EF000419D4208BF964244F1FD0404F50D
:10080000407402D25B084FEA3202B61A65EB030568
:100810005B084FEA32024FF480104FF4002CB6EB25
:10082000020E75EB030E22BFB61A754640EA0C00A5
:100830005B084FEA3202B6EB020E75EB030E22BFE5
:10084000B61A754640EA5C005B084FEA3202B6EB26
:10085000020E75EB030E22BFB61A754640EA9C00E5
:100860005B084FEA3202B6EB020E75EB030E22BFB5
:10087000B61A754640EADC0055EA060E18D04FEA73
:10088000051545EA16754FEA06164FEAC30343EA13
:1008900052734FEAC2025FEA1C1CC0D111F4801FE0
:1008A0000BD141EA00014FF000004FF0004CB6E7D9
:1008B00011F4801F04BF01430020B4F1FD0C88BF78
:1008C000BCF5E06F3FF6AFAEB5EB030C04BFB6EB83
:1008D000020C5FEA500C50F1000041EB045170BD76
:1008E0000EF0004E4EEA113114EB5C04C2BFD4EBA3
:1008F0000C0541EA045170BD41F480114FF0000E27
:10090000013C90E645EA060E8DE60CEA135594EAA2
:100910000C0F08BF95EA0C0F3FF43BAF94EA0C0FA5
:100920000AD150EA01347FF434AF95EA0C0F7FF41A
:1009300025AF104619462CE795EA0C0F06D152EA6E
:1009400003353FF4FDAE1046194622E750EA410652
:1009500018BF52EA43067FF4C5AE50EA41047FF463
:100960000DAF52EA43057FF4EBAE12E74FF0FF3CC8
:1009700006E000BF4FF0010C02E000BF4FF0010C99
:100980004DF804CD4FEA410C7FEA6C5C4FEA430C12
:1009900018BF7FEA6C5C1BD001B050EA410C0CBF61
:1009A00052EA430C91EA030F02BF90EA020F0020C3
:1009B000704710F1000F91EA030F58BF994208BF2A
:1009C00090422CBFD8176FEAE37040F001007047E7
:1009D0004FEA410C7FEA6C5C02D150EA013C07D13E
:1009E0004FEA430C7FEA6C5CD6D152EA033CD3D089
:1009F0005DF8040B704700BF8446104662468C4683
:100A00001946634600E000BF01B5FFF7B7FF0028B5
:100A100048BF10F1000F01BD4DF808EDFFF7F4FFDE
:100A20000CBF012000205DF808FB00BF4DF808ED69
:100A3000FFF7EAFF34BF012000205DF808FB00BF8C
:100A40004DF808EDFFF7E0FF94BF012000205DF8AE
:100A500008FB00BF4DF808EDFFF7CEFF94BF012063
:100A600000205DF808FB00BF4DF808EDFFF7C4FF5C
:100A700034BF012000205DF808FB00BF4A0011D2FE
:100A800012F5001211D20DD56FF47873B3EB6252E8
:100A90000ED44FEAC12343F0004343EA505323FAF4
:100AA00002F070474FF00000704750EA013002D169
:100AB0004FF0FF3070474FF00000704753B94AB90C
:100AC000002908BF00281CBF4FF0FF314FF0FF3056
:100AD00000F06CB9ADF1080C6DE904CE00F006F839
:100AE000DDF804E0DDE9022304B070472DE9F047AA
:100AF000089E0D4604468E46002B40F082808A42B6
:100B0000174646D9B2FA82F24AB1C2F1200105FA7B
:100B100002F320FA01F1974041EA030E94404FEAB4
:100B20001748230CBEFBF8FCB9B208FB1CEE43EAE5
:100B30000E430CFB01F098420AD9FB180CF1FF356B
:100B400080F01681984240F21381ACF1020C3B44D4
:100B50001B1AA4B2B3FBF8F008FB103344EA0344B9
:100B600000FB01F1A14209D93C1900F1FF3380F0EB
:100B70000181A14240F2FE8002383C44641A40EAFE
:100B80000C4000211EB1D4400023C6E90043BDE85B
:100B9000F08702B9FFDEB2FA82F2002A4FD1CB1BF6
:100BA0004FEA174E1FFA87F80121B3FBFEFC250C14
:100BB0000EFB1C3345EA034508FB0CF3AB4207D997
:100BC0007D190CF1FF3002D2AB4200F2E78084467F
:100BD000ED1AA3B2B5FBFEF00EFB105543EA054437
:100BE00008FB00F8A04507D93C1900F1FF3302D2F9
:100BF000A04500F2D7801846A4EB080440EA0C4058
:100C0000C0E78B4208D9002E00F0AF800021C6E972
:100C100000050846BDE8F087B3FA83F100294BD1FF
:100C2000AB4202D3824200F2B780841A65EB030321
:100C300001209E46002EAAD0C6E9004EA7E7C2F1C9
:100C4000200C01FA02F3974020FA0CF04FEA174EFD
:100C500021FA0CFC1843BCFBFEF1050C0EFB11CC79
:100C60001FFA87F845EA0C4501FB08F3AB4204FA8A
:100C700002F409D97D1901F1FF3C80F08B80AB4271
:100C800040F2888002393D44EB1A85B2B3FBFEF096
:100C90000EFB103345EA034500FB08F3AB4207D9CE
:100CA0007D1900F1FF3C71D2AB426FD902383D444F
:100CB000EB1A40EA014178E7C1F1200C8B4022FA9F
:100CC0000CF71F4320FA0CF405FA01F34FEA174E14
:100CD00025FA0CF51C43230CB5FBFEF91FFA87F827
:100CE0000EFB195543EA054509FB08FAAA4502FA25
:100CF00001F200FA01F308D97D1909F1FF3047D25A
:100D0000AA4545D9A9F102093D44A5EB0A05A4B2BB
:100D1000B5FBFEF00EFB105544EA054400FB08F855
:100D2000A04507D93C1900F1FF352DD2A0452BD99C
:100D300002383C4440EA0940A4EB0804A0FB0289C5
:100D40004C45C6464D4619D316D05EB1B3EB0E02E4
:100D500064EB050404FA0CFCCA404CEA0202CC40E5
:100D6000C6E900240021BDE8F087314630460EE791
:100D7000AC46EDE6184601E74345E6D2B8EB020E75
:100D800069EB07050138E0E72846D3E760468FE7BF
:100D90008146BAE7614677E708464BE7ACF1020CBB
:100DA0003D4415E702383C4426E700BF704700BFCA
:100DB00010F8012B11F8013B012A28BF9A42F7D005
:100DC000D01A7047034613F8012B002AFBD1181ADA
:100DD0000138704700000000000000000000000023
:100DE00001F0FF01102A2BDB10F0070F08D010F8DC
:100DF000013B013A8B422DD010F0070F42B3F6D1E0
:100E0000F0B441EA012141EA014122F007047FF0F8
:100E100000070023F0E80256083C85EA010586EA4F
:100E2000010685FA47F5A3FA87F586FA47F6A5FA8B
:100E300087F68EB9EED1F0BC01F0FF0102F0070297
:100E400032B110F8013B013A83EA010313B1F8D142
:100E50000020704701387047002D06BF3546033823
:100E6000073815F0010F07D1013015F4807F02BF5C
:100E7000013015F4C03F0130F0BC0138704700BFAD
:100E80004FEA410C7FEA6C5C02D150EA013C0AD186
:100E90004FEA430C7FEA6C5C02D152EA033C02D178
:100EA0004FF0000070474FF0010070474FEA4102D9
:100EB00012F5001215D211D56FF47873B3EB6252AC
:100EC00012D94FEAC12343F0004343EA505311F0D3
:100ED000004F23FA02F018BF404270474FF0000065
:100EE000704750EA013005D111F0004008BF6FF0A3
:100EF000004070474FF00000704700BF4FEA4102CA
:100F0000B2F1E04324BFB3F5001CDCF1FE5C0DD967
:100F100001F0004C4FEAC0024CEA5070B2F1004FB1
:100F200040EB830008BF20F00100704711F0804FB4
:100F300021D113F13872BCBF01F00040704741F479
:100F400080114FEA5252C2F11802C2F1200C10FA7D
:100F50000CF320FA02F018BF40F001004FEAC12361
:100F60004FEAD32303FA0CFC40EA0C0023FA02F305
:100F70004FEA4303CCE77FEA625307D150EA0133DB
:100F80001EBF4FF0FE4040F44000704701F00040AB
:100F900040F0FE4040F40000704700BF38B5054601
:100FA0000C462846214600220023FFF73FFD28B9C2
:100FB00028462146BDE8384000F00AB8284604F12A
:100FC000004100F005F8404261EB410138BD00BF2F
:100FD000D0B50C4B002206460F46FFF7B5FAFFF7D7
:100FE0004DFD0446FFF736FA074B0022FFF7ACFA37
:100FF00002460B4630463946FFF7EEF8FFF73EFD56
:101000002146D0BD0000F03D0000F041DFF834D0B3
:10101000002103E00C4B5B58435004310B480C4B50
:1010200042189A42F6D30B4A02E0002342F8043BEE
:10103000094B9A42F9D303F0B3FD07F067F900F0CA
:10104000E9FFFEE700000120E8DA000800000020C8
:101050000803002008030020E4050020FEE700004C
:1010600080B586B002AF0346FB710123FB60FB79BC
:1010700003F00F03FB72FB791B09BB72BB7A1B01E8
:101080005BB243F00C035BB2DBB27B7207F1090287
:101090006423009301234E21244804F075FBFB6870
:1010A000184603F0FDFDBB7A1B015BB243F0080359
:1010B0005BB2DBB27B7207F1090264230093012368
:1010C0004E211A4804F060FBFB68184603F0E8FD67
:1010D000FB7A1B015BB243F00C035BB2DBB27B72A9
:1010E00007F109026423009301234E210F4804F005
:1010F0004BFBFB68184603F0D3FDFB7A1B015BB288
:1011000043F008035BB2DBB27B7207F10902642390
:10111000009301234E21054804F036FBFB68184676
:1011200003F0BEFD00BF1037BD4680BD4803002060
:1011300080B586B002AF0346FB710123FB60FB79EB
:1011400003F00F03FB72FB791B09BB72BB7A1B0117
:101150005BB243F00D035BB2DBB27B7207F10902B5
:101160004FF0FF33009301234E21264804F00CFB7F
:10117000FB68184603F094FDBB7A1B015BB243F099
:1011800009035BB2DBB27B7207F109024FF0FF3358
:10119000009301234E211B4804F0F6FAFB68184621
:1011A00003F07EFDFB7A1B015BB243F00D035BB2E3
:1011B000DBB27B7207F109024FF0FF33009301238A
:1011C0004E21104804F0E0FAFB68184603F068FD71
:1011D000FB7A1B015BB243F009035BB2DBB27B72AB
:1011E00007F109024FF0FF33009301234E21054818
:1011F00004F0CAFAFB68184603F052FD00BF10372E
:10120000BD4680BD4803002080B584B000AF786043
:1012100039607B681B885BB23B737B681B881B0A49
:101220009BB25BB27B733B6893F901303B723B68C6
:1012300093F900307B7207F1080107F10C030222D9
:10124000184607F01FFF0346002B01D0012300E0E2
:10125000002318461037BD4680BD000080B500AFA2
:10126000962003F01DFD3320FFF7FAFE3220FFF732
:10127000F7FE2820FFF7F4FE074B0F221A70064BEB
:101280001B781846FFF7ECFE0120FFF7E9FE062069
:10129000FFF7E6FE00BF80BD4403002080B584B0A8
:1012A00000AF78600023FB730023BB810023FB7237
:1012B0004DE00023BB7223E0BB89FA7A79680A44C7
:1012C00092F9002013431B021AB2FB7A01337968AA
:1012D0000B4493F900301BB2DBB21BB213431BB2B9
:1012E000BB81BB7A204A32F81330BA899A4202D1C4
:1012F0000123FB7307E00023BB81BB7A0133BB7280
:10130000BB7A072BD8D9BB891B0A9BB25BB23B7255
:10131000BB895BB27B72FB7B002B09D1FB7A7A68BD
:10132000134493F90030DBB21846FFF701FF09E0E0
:1013300007F10803184600F055F80023FB73FB7A09
:101340000133FB720023BB81FB7A0133FB72FB7A12
:101350007A68134493F90030002BAAD100BF00BF74
:101360001037BD4680BD00BF9403002080B584B017
:1013700000AF03460A46FB711346BB71BB79013BC4
:10138000DBB203F00F03FB73FB79012B08D1FB7B6E
:1013900063F07F03FB73FB7B1846FFF761FE07E0FA
:1013A000FB7B63F03F03FB73FB7B1846FFF758FEA4
:1013B00000BF1037BD4680BD80B500AF044B1B7821
:1013C00023F00203DBB21846FFF74AFE00BF80BDE0
:1013D0004403002080B500AF0120FFF741FE00BFAD
:1013E00080BD000080B584B000AF78600023FB733F
:1013F00013E0FB7B5B000D4A134479681846FFF746
:1014000003FF0346002B04D1FB7B1846FFF790FE39
:1014100000E000BFFB7B0133FB73FB7B072BE8D9AC
:1014200000BF00BF1037BD4680BD00BF9403002041
:1014300080B58EB000AFF860B9607A603B60002381
:1014400087F837305EE297F837305B0007F13802F3
:101450001344002223F8282C97F83730002B45D16D
:1014600097F837305B0007F13802134433F8283C13
:101470001AB2FB6893F900301BB213431AB297F803
:10148000373092B25B0007F138010B4423F8282C67
:1014900097F837305B0007F13802134433F8282CF3
:1014A00097F83730120292B25B0007F138010B4413
:1014B00023F8282C97F837305B0007F138021344E3
:1014C00033F8283C1AB2FB68013393F900301BB2A1
:1014D000DBB21BB213431AB297F8373092B25B00FB
:1014E00007F138010B4423F8282C06E297F837302F
:1014F000012B45D197F837305B0007F138021344D0
:1015000033F8283C1AB2BB6893F900301BB213437E
:101510001AB297F8373092B25B0007F138010B44EA
:1015200023F8282C97F837305B0007F13802134472
:1015300033F8282C97F83730120292B25B0007F18B
:1015400038010B4423F8282C97F837305B0007F15B
:101550003802134433F8283C1AB2BB68013393F9BC
:1015600000301BB2DBB21BB213431AB297F837300C
:1015700092B25B0007F138010B4423F8282CBCE140
:1015800097F83730022B45D197F837305B0007F1D9
:101590003802134433F8283C1AB27B6893F90030C0
:1015A0001BB213431AB297F8373092B25B0007F1BF
:1015B00038010B4423F8282C97F837305B0007F1EB
:1015C0003802134433F8282C97F83730120292B2BD
:1015D0005B0007F138010B4423F8282C97F83730CB
:1015E0005B0007F13802134433F8283C1AB27B68D9
:1015F000013393F900301BB2DBB21BB213431AB2B2
:1016000097F8373092B25B0007F138010B4423F8AA
:10161000282C72E197F83730032B45D197F83730F3
:101620005B0007F13802134433F8283C1AB23B68D8
:1016300093F900301BB213431AB297F8373092B2C5
:101640005B0007F138010B4423F8282C97F837305A
:101650005B0007F13802134433F8282C97F8373031
:10166000120292B25B0007F138010B4423F8282CD8
:1016700097F837305B0007F13802134433F8283C01
:101680001AB23B68013393F900301BB2DBB21BB2D4
:1016900013431AB297F8373092B25B0007F1380162
:1016A0000B4423F8282C28E197F83730042B45D138
:1016B00097F837305B0007F13802134433F8283CC1
:1016C0001AB23B6C93F900301BB213431AB297F86D
:1016D000373092B25B0007F138010B4423F8282C15
:1016E00097F837305B0007F13802134433F8282CA1
:1016F00097F83730120292B25B0007F138010B44C1
:1017000023F8282C97F837305B0007F13802134490
:1017100033F8283C1AB23B6C013393F900301BB20A
:10172000DBB21BB213431AB297F8373092B25B00A8
:1017300007F138010B4423F8282CDEE097F8373006
:10174000052B45D197F837305B0007F13802134479
:1017500033F8283C1AB27B6C93F900301BB2134368
:101760001AB297F8373092B25B0007F138010B4498
:1017700023F8282C97F837305B0007F13802134420
:1017800033F8282C97F83730120292B25B0007F139
:1017900038010B4423F8282C97F837305B0007F109
:1017A0003802134433F8283C1AB27B6C013393F9A6
:1017B00000301BB2DBB21BB213431AB297F83730BA
:1017C00092B25B0007F138010B4423F8282C94E017
:1017D00097F83730062B45D197F837305B0007F183
:1017E0003802134433F8283C1AB2BB6C93F900302A
:1017F0001BB213431AB297F8373092B25B0007F16D
:1018000038010B4423F8282C97F837305B0007F198
:101810003802134433F8282C97F83730120292B26A
:101820005B0007F138010B4423F8282C97F8373078
:101830005B0007F13802134433F8283C1AB2BB6C42
:10184000013393F900301BB2DBB21BB213431AB25F
:1018500097F8373092B25B0007F138010B4423F858
:10186000282C4AE097F83730072B45D197F83730C6
:101870005B0007F13802134433F8283C1AB2FB6CC2
:1018800093F900301BB213431AB297F8373092B273
:101890005B0007F138010B4423F8282C97F8373008
:1018A0005B0007F13802134433F8282C97F83730DF
:1018B000120292B25B0007F138010B4423F8282C86
:1018C00097F837305B0007F13802134433F8283CAF
:1018D0001AB2FB6C013393F900301BB2DBB21BB2BE
:1018E00013431AB297F8373092B25B0007F1380110
:1018F0000B4423F8282C00E000BF97F83730013361
:1019000087F8373097F83730072B7FF69CAD0023E8
:1019100087F8363011E097F8363097F836205B00BC
:1019200007F138010B4433F8281CD54B23F812106B
:1019300097F83630013387F8363097F83630072B72
:10194000E9D94020FFF78CFB002387F835302EE3E0
:1019500097F8353007F110025B001344C949184667
:10196000FFF752FC0346002B17D1002387F83430D1
:101970000EE097F83430C44AD35C1846FFF7D8FB22
:10198000012003F08DF997F83430013387F83430B3
:1019900097F83430072BECD904E397F8353007F18A
:1019A00010025B001344B9491846FFF72DFC0346AB
:1019B000002B17D1002387F833300EE097F833302F
:1019C000B34AD35C1846FFF7B3FB012003F068F974
:1019D00097F83330013387F8333097F83330072BDB
:1019E000ECD9DFE297F8353007F110025B001344C1
:1019F000A8491846FFF708FC0346002B17D100231F
:101A000087F832300EE097F83230A34AD35C18469C
:101A1000FFF78EFB012003F043F997F832300133D2
:101A200087F8323097F83230072BECD9BAE297F8C2
:101A3000353007F110025B00134498491846FFF750
:101A4000E3FB0346002B17D1002387F831300EE06B
:101A500097F83130924AD35C1846FFF769FB0120B2
:101A600003F01EF997F83130013387F8313097F8D9
:101A70003130072BECD995E297F8353007F1100299
:101A80005B00134487491846FFF7BEFB0346002B53
:101A900017D1002387F830300EE097F83030824AB3
:101AA000D35C1846FFF744FB012003F0F9F897F8E0
:101AB0003030013387F8303097F83030072BECD9CD
:101AC00070E297F8353007F110025B001344774954
:101AD0001846FFF799FB0346002B17D1002387F820
:101AE0002F300EE097F82F30714AD35C1846FFF77D
:101AF0001FFB012003F0D4F897F82F30013387F84B
:101B00002F3097F82F30072BECD94BE297F8353070
:101B100007F110025B00134466491846FFF774FB97
:101B20000346002B17D1002387F82E300EE097F8DC
:101B30002E30614AD35C1846FFF7FAFA012003F011
:101B4000AFF897F82E30013387F82E3097F82E3003
:101B5000072BECD926E297F8353007F110025B002D
:101B6000134456491846FFF74FFB0346002B17D185
:101B7000002387F82D300EE097F82D30504AD35CC3
:101B80001846FFF7D5FA012003F08AF897F82D30B0
:101B9000013387F82D3097F82D30072BECD901E26F
:101BA00097F8353007F110025B0013444549184699
:101BB000FFF72AFB0346002B17D1002387F82C30B0
:101BC0000EE097F82C30404AD35C1846FFF7B0FA85
:101BD000012003F065F897F82C30013387F82C309A
:101BE00097F82C30072BECD9DCE197F8353007F16A
:101BF00010025B00134435491846FFF705FB034606
:101C0000002B17D1002387F82B300EE097F82B30EC
:101C10002F4AD35C1846FFF78BFA012003F040F8F7
:101C200097F82B30013387F82B3097F82B30072BA0
:101C3000ECD9B7E197F8353007F110025B00134497
:101C400024491846FFF7E0FA0346002B46D100234B
:101C500087F82A300EE097F82A301F4AD35C1846DE
:101C6000FFF766FA012003F01BF897F82A300133DA
:101C700087F82A3097F82A30072BECD992E100BF79
:101C8000940300207CD2000840D5000880D20008D0
:101C900048D5000884D2000850D5000888D2000832
:101CA00058D500088CD2000860D5000890D20008F2
:101CB00068D5000894D2000880D5000898D20008A2
:101CC00088D500089CD2000878D50008A0D200086A
:101CD00090D50008A4D2000898D5000897F83530B0
:101CE00007F110025B001344B7491846FFF78CFA5E
:101CF0000346002B17D1002387F829300EE097F810
:101D00002930B24AD35C1846FFF712FA012002F0DC
:101D1000C7FF97F82930013387F8293097F8293021
:101D2000072BECD93EE197F8353007F110025B0044
:101D30001344A7491846FFF767FA0346002B17D14B
:101D4000002387F828300EE097F82830A14AD35CAA
:101D50001846FFF7EDF9012002F0A2FF97F82830AE
:101D6000013387F8283097F82830072BECD919E190
:101D700097F8353007F110025B0013449649184676
:101D8000FFF742FA0346002B17D1002387F82730CC
:101D90000EE097F82730914AD35C1846FFF7C8F950
:101DA000012002F07DFF97F82730013387F82730B4
:101DB00097F82730072BECD9F4E097F8353007F186
:101DC00010025B00134486491846FFF71DFA0346CC
:101DD000002B17D1002387F826300EE097F8263025
:101DE000804AD35C1846FFF7A3F9012002F058FFA0
:101DF00097F82630013387F8263097F82630072BDE
:101E0000ECD9CFE097F8353007F110025B001344AE
:101E100075491846FFF7F8F90346002B17D1002340
:101E200087F825300EE097F82530704AD35C1846C5
:101E3000FFF77EF9012002F033FF97F825300133D8
:101E400087F8253097F82530072BECD9AAE097F8CA
:101E5000353007F110025B00134465491846FFF75F
:101E6000D3F90346002B17D1002387F824300EE066
:101E700097F824305F4AD35C1846FFF759F90120E0
:101E800002F00EFF97F82430013387F8243097F8DA
:101E90002430072BECD985E097F8353007F1100294
:101EA0005B00134454491846FFF7AEF90346002B74
:101EB00017D1002387F823300EE097F823304F4ADC
:101EC000D35C1846FFF734F9012002F0E9FE97F8D9
:101ED0002330013387F8233097F82330072BECD9D0
:101EE00060E097F8353007F110025B001344444975
:101EF0001846FFF789F90346002B17D1002387F80E
:101F000022300EE097F822303E4AD35C1846FFF7A5
:101F10000FF9012002F0C4FE97F82230013387F850
:101F2000223097F82230072BECD93BE097F8353078
:101F300007F110025B00134433491846FFF764F9B8
:101F40000346002B17D1002387F821300EE097F8C5
:101F500021302E4AD35C1846FFF7EAF8012002F040
:101F60009FFE97F82130013387F8213097F8213010
:101F7000072BECD916E0002387F820300EE097F805
:101F80002030234AD35C1846FFF7D2F8012002F034
:101F900087FE97F82030013387F8203097F82030FB
:101FA000072BECD997F83530013387F8353097F89F
:101FB0003530072B7FF6CCAC0120FFF751F800BF7E
:101FC0003837BD4680BD00BFA8D2000870D50008D4
:101FD000ACD20008A8D50008B0D20008B0D50008DF
:101FE000B4D20008B8D50008B8D20008C0D500089F
:101FF000BCD20008D0D50008C0D20008D8D500084F
:10200000C4D20008E0D50008C8D20008C8D500082E
:10201000A0D5000880B588B004AF0023FB7302F0A0
:10202000EBFD00F0F7FC00F08FFE00F06FFE00F01B
:102030007BFD00F037FEFFF711F9B24B0393B24B73
:102040000293B24B0193B24B0093B24BB24AB349E5
:10205000B348FFF7EDF9B348FFF720F9B24802F0B3
:1020600009FD0B22B149B04805F0B0FBB04B1B781D
:10207000002B40F09F81AF4B1B78002B33D1FFF733
:10208000A9F9AD48FFF70AF9AC4B1B78002B06D134
:102090004FF0FF330422AA49A34805F00AFBA74BDF
:1020A00001221A704FF47A7002F0FAFDA5499F4898
:1020B000FEF77EFE0346002BD8D19B4805F0FAFBC5
:1020C0009C4B02221A709D4B02221A704FF47A70B8
:1020D00002F0E6FD964B00221A7006229A499248B9
:1020E00005F074FBC2E7934B1B78012B17D1FFF768
:1020F00071F99648FFF7D2F8954B1B78002B06D163
:102100004FF0FF3306229349874805F0D2FA904BEF
:1021100001221A704FF47A7002F0C2FDA6E7854BD7
:102120001B78022B17D1FFF755F98B48FFF7B6F84C
:102130008A4B1B78002B06D14FF0FF3311228849C0
:10214000794805F0B6FA854B01221A704FF47A707F
:1021500002F0A6FD8AE7774B1B78032B17D1FFF718
:1021600039F98048FFF79AF87F4B1B78002B06D18E
:102170004FF0FF332F227D496B4805F09AFA7A4BD6
:1021800001221A704FF47A7002F08AFD6EE7694BF3
:102190001B78042B17D1FFF71DF97548FFF77EF860
:1021A000744B1B78002B06D14FF0FF332622724967
:1021B0005D4805F07EFA6F4B01221A704FF47A7079
:1021C00002F06EFD52E75B4B1B78052B17D1FFF732
:1021D00001F96A48FFF762F8694B1B78002B06D1BA
:1021E0004FF0FF330F2267494F4805F062FA644B06
:1021F00001221A704FF47A7002F052FD36E74D4B0F
:102200001B78062B54D1FFF7E5F85F48FFF746F837
:102210005E4B1B78002B06D14FF0FF3330225C4918
:10222000414805F046FA594B01221A704FF47A7072
:1022300002F036FD57495848FEF7BAFD0346002B19
:102240007FF414AF384805F035FB0E225349364869
:1022500005F0BCFA0023BB6007E04F4ABB6813449B
:1022600000221A70BB680133BB60BB68552BF4D9E0
:102270004FF0FF330D224A492B4805F01AFA2D4B37
:1022800004221A703B4B00221A703D4B00221A7038
:102290003E4B00221A704FF47A7002F001FD244B7D
:1022A00000221A7011223F491F4805F08FFADDE61F
:1022B000204B1B78072B1AD1FFF78CF83A48FEF712
:1022C000EDFF3A4B1B78002B06D14FF0FF330D2268
:1022D0003349154805F0EDF9344B01221A704FF4DB
:1022E0007A7002F0DDFC124B02221A70BEE6FFF794
:1022F00071F82F48FEF7D2FF4FF47A7002F0D0FC4D
:10230000B4E600BFDCD20008E0D20008E4D2000846
:10231000E8D20008CCD20008D0D20008D4D20008FD
:10232000D8D20008ECD20008F8040020DC04002019
:102330002403002025030020F4D2000826030020F7
:1023400000D3000820010020A803002008D30008C3
:102350002703002014D300081CD300082803002002
:1023600028D300083CD300082903002048D30008E4
:1023700078D300082A03002084D30008ACD30008D7
:102380002B030020B8D30008C8D300082C0300207A
:1023900000000020C800002078050020FC03002079
:1023A000D4D3000840040020E4D300082D0300200B
:1023B000F0D30008B14B1B78012B40F0B881B04B33
:1023C0001B78002B32D1AF49AF48FEF7F1FC034632
:1023D000002B1ED1AA4B1B780133DAB2A84B1A701E
:1023E000FEF7F8FFA948FEF759FF01210220FEF78A
:1023F000BDFFA748FEF752FF4FF47A7002F050FC81
:102400009E4B00221A700D22A249A34805F0DEF966
:102410002CE6FEF7DFFFA148FEF740FF0121022076
:10242000FEF7A4FF9E48FEF739FFFEE7944B1B78AA
:10243000012B32D197499B48FEF7BAFC0346002B8B
:102440001ED18F4B1B780133DAB28D4B1A70FEF719
:10245000C1FF8E48FEF722FF01210220FEF786FF12
:102460009148FEF71BFF4FF47A7002F019FC834B82
:1024700000221A7006228D49874805F0A7F9F5E574
:10248000FEF7A8FF8548FEF709FF01210220FEF7AD
:102490006DFF8748FEF702FFFEE7794B1B78022BA2
:1024A0003DD182498348FEF783FC0346002B1DD1B2
:1024B000734B1B780133DAB2714B1A70FEF78AFF47
:1024C0007248FEF7EBFE01210220FEF74FFF7A482B
:1024D000FEF7E4FE4FF47A7002F0E2FB674B002255
:1024E0001A70764B1B78022B13D10CE0FEF772FFAB
:1024F0006A48FEF7D3FE01210220FEF737FF70483D
:10250000FEF7CCFEFEE734226E49634805F05EF923
:10251000ACE523226C49604805F058F9A6E5584B14
:102520001B78032B3AD168496848FEF741FC034603
:10253000002B07D034226349654806F0A3FD03460B
:10254000002B1ED14E4B1B780133DAB24C4B1A7064
:10255000FEF740FF4D48FEF7A1FE01210220FEF7E5
:1025600005FF5C48FEF79AFE4FF47A7002F098FB84
:10257000424B00221A7011225749474805F026F9AC
:1025800074E5FEF727FF4548FEF788FE012102208B
:10259000FEF7ECFE5148FEF781FEFEE7384B1B7854
:1025A000042B32D14C494E48FEF702FC0346002B67
:1025B0001ED1334B1B780133DAB2314B1A70FEF760
:1025C00009FF3248FEF76AFE01210220FEF7CEFE27
:1025D0004448FEF763FE4FF47A7002F061FB274B2C
:1025E00000221A70082240492B4805F0EFF83DE51B
:1025F000FEF7F0FE2948FEF751FE01210220FEF70A
:10260000B5FE3A48FEF74AFEFEE71D4B1B78052B48
:1026100076D108223449364806F034FD0346002BB3
:102620001ED1174B1B780133DAB2154B1A70FEF727
:10263000D1FE1648FEF732FE01210220FEF796FE7B
:102640002C48FEF72BFE4FF47A7002F029FB0B4B5F
:1026500000221A70562228490F4805F0B7F805E500
:10266000FEF7B8FE0D48FEF719FE01210220FEF725
:102670007DFE2248FEF712FEFEE700BF2403002085
:1026800025030020DC040020300000201CD40008BA
:1026900028D4000830040020F804002000D40008EA
:1026A00010D400083C00002040D40008A8030020FB
:1026B00034D400084C00002058D400082603002021
:1026C0004CD40008680400200C04002054000020B2
:1026D0007800002064D400084004002070D4000872
:1026E000AC00002088D40008E80400207CD4000856
:1026F000C0000020A0D400087805002094D4000871
:10270000A14B1B78062B7FF4B1ACA04801F0CCFEA6
:102710009F4B00221A709C4B1B780133DAB29A4B04
:102720001A700E229B499C4805F050F89EE4984B85
:102730001B78022B1FD109E0984B1B686433974A22
:102740001360974B1B680133954A1360934B1A68CB
:10275000944B1B689A42EFD9914B1B68013B904AFE
:1027600013608F4B1B68904A136000F027FA884B68
:1027700003221A707AE4864B1B78032B40F0F88012
:1027800000228A498A4804F064FD00228949884869
:1027900004F069FE854B1B781A46844B5B7819461A
:1027A000824B9B7800930B468349844806F04AFC91
:1027B000804B9B781A467F4B5B7819467D4BDB78C4
:1027C00000930B467E497F4806F03CFC794B1B7812
:1027D000012B04D17C497D4806F034FC39E0754B6F
:1027E0001B78022B04D17A49784806F02BFC30E0A4
:1027F000704B1B78032B04D17649744806F022FCF9
:1028000027E06C4B1B78042B04D173496F4806F00A
:1028100019FC1EE0674B1B78052B04D16F496B48F0
:1028200006F010FC15E0634B1B78062B04D16C49B5
:10283000664806F007FC0CE05E4B1B78072B04D1C2
:102840006849624806F0FEFB03E067495F4806F00E
:10285000F9FB564B9B78002B11D100F0E7FA0246AA
:102860004F4B1B681344504A136052494F4800F0C5
:10287000F9FA03467B603B1D184601F06DF8FB7BBF
:10288000002B13D1FEF7A6FD584B0393584B029330
:10289000584B0193584B0093584B594A59495A4841
:1028A000FEF7C6FDFEF788FD0123FB734348FEF7E4
:1028B000F5FC01210220FEF759FD4248FEF7EEFC2F
:1028C0000A210220FEF752FD4048FEF7E7FC4F4B7D
:1028D0001B78012B0ED10F210220FEF747FD4A483D
:1028E000FEF7DCFC10210220FEF740FD4548FEF714
:1028F000D5FC37E0454B1B78022B0ED10F2102206F
:10290000FEF734FD3D48FEF7C9FC10210220FEF71A
:102910002DFD3C48FEF7C2FC24E03C4B1B78032B0A
:102920000ED10F210220FEF721FD3448FEF7B6FC40
:1029300010210220FEF71AFD3148FEF7AFFC11E02E
:10294000324B1B78042B0DD10F210220FEF70EFD18
:102950002D48FEF7A3FC10210220FEF707FD2848B2
:10296000FEF79CFC01210120FEF700FDFFF77EBB76
:10297000FEF730FD2648FEF791FC4FF47A7002F026
:102980008FF9FFF773BB00BF2503002078050020F7
:1029900024030020FC030020F80400203003002062
:1029A0002C01002034030020D8040020540400200F
:1029B000AC040020F4040020ACD400087005002012
:1029C000BCD40008D0040020CCD40008A00400200F
:1029D000D0D40008D4D40008D8D40008DCD400082F
:1029E000E0D40008E8D40008ECD4000800D50008C2
:1029F000E8D20008CCD20008D0D20008F0D40008F9
:102A0000F4D40008F8D40008FCD40008CE05002057
:102A100004D5000880B5ACB000AF1823FB660123D5
:102A2000C7F880300123C7F884300023C7F8883006
:102A30006023C7F88C300223C7F894300123C7F80D
:102A400098300123C7F89C301023C7F8A030072323
:102A5000C7F8A4300223C7F8A8300223C7F8AC3067
:102A600007F16C03184603F0EBF90346002B04D082
:102A700040F26E21294801F05FFF0F23BB6503235D
:102A8000FB6500233B6600237B660023BB6607F1E2
:102A900058030121184603F079FD0346002B04D0AA
:102AA0004FF41F711D4801F047FF1D4B7B60002351
:102AB000BB6200233B634FF400737B653B1D1846EC
:102AC00003F074FF0346002B04D040F28621134824
:102AD00001F032FF4FF4007003F05EF90346002B63
:102AE00004D040F28D210D4801F026FF03F0C8FE0E
:102AF00003460C4AA2FB03239B09184602F0EBF99C
:102B0000042002F0F5F9002200214FF0FF3002F01E
:102B1000B8F900BFB037BD4680BD00BF14D500086E
:102B200042000200D34D621080B500AF1F4B204A17
:102B30001A601E4B1F4A5A601C4B00229A601B4BA6
:102B40000122DA60194B00221A61184B00225A61E7
:102B5000164B00229A61154B0022DA61134B0022BA
:102B60001A62124802F080FD0346002B04D040F2A6
:102B7000AB21114801F0E0FE00210C4803F06AF897
:102B80000346002B04D040F2B2210B4801F0D4FEE2
:102B90000021064803F0A8F80346002B04D040F2B9
:102BA000B921054801F0C8FE00BF80BD48030020E0
:102BB000005400403029D22014D5000880B586B0DA
:102BC00000AF2E4B2E4A1A602C4B00225A602B4B22
:102BD0007F229A60294BFF22DA60284B00221A617B
:102BE000264B00225A61254B00229A61234B00227A
:102BF000DA61224804F0C0F90346002B04D040F209
:102C0000D921204801F098FE1F4B1B783B711F4BC8
:102C10001B787B711E4B1B78BB7100233B6100232B
:102C20007B613B1D00221946144804F046FA034616
:102C3000002B04D040F2E521124801F07DFE154B37
:102C40001B783B70144B1B787B70144B1B78BB704C
:102C5000134B1B78FB703B4600221946074804F0D3
:102C600054FB0346002B04D040F2EF21054801F04D
:102C700063FE00BF1837BD4680BD00BFAC04002016
:102C80000028004014D50008A40300202E030020D3
:102C90009C040020F1040020A8040020F803002078
:102CA000F004002080B500AF154B164A1A60144B93
:102CB0004FF4E1325A60124B00229A60104B00220E
:102CC000DA600F4B00221A610D4B0C225A610C4B3B
:102CD00000229A610A4B0022DA61094B00221A6233
:102CE000074B00225A62064804F092FC0346002B70
:102CF00004D04FF44171044801F01EFE00BF80BDB6
:102D0000F80400200044004014D5000880B582B0CB
:102D100000AF0C4B9B6C0B4A43F001039364094BCF
:102D20009B6C03F001037B607B6800220021102074
:102D300002F0A7F8102002F0C0F800BF0837BD4627
:102D400080BD00BF0010024080B58AB000AF334B99
:102D5000DB6C324A43F00403D364304BDB6C03F08A
:102D600004033B613B692D4BDB6C2C4A43F00103B0
:102D7000D3642A4BDB6C03F00103FB60FB68274B39
:102D8000DB6C264A43F00203D364244BDB6C03F074
:102D90000203BB60BB68214BDB6C204A43F080031D
:102DA000D3641E4BDB6C03F080037B607B684FF4C5
:102DB00040437B610323BB610023FB6107F11403E4
:102DC0001946174802F0E6FA49F6F3137B6103232C
:102DD000BB610023FB6107F1140319464FF09040DB
:102DE00002F0D8FAFB237B610323BB610023FB6164
:102DF00007F1140319460B4802F0CCFA08237B6153
:102E00000323BB610023FB6107F114031946064845
:102E100002F0C0FA00BF2837BD4680BD0010024056
:102E20000008004800040048001C004880B483B03B
:102E300000AF0A4BDA780A4B1B789A4206D2074B4E
:102E4000DB78002B02D001237B6001E000237B6054
:102E50007B6818460C37BD4680BC7047F4040020E0
:102E6000F004002080B584B000AF786039600023A2
:102E7000FB6007F10C033A687968184600F00CF81B
:102E80000346FB60034B1A68FB681344184610376F
:102E9000BD4680BDA404002090B585B000AFF860A9
:102EA000B9607A607B68DB781A46144B1B68013B7B
:102EB00003FB02F3642202FB03F2114B1B689A42EC
:102EC00008D17A68B968F86800F010FA0246FB6821
:102ED0001A600DE07968B86800F014F804467A6862
:102EE000B968F86800F002FA0346E218FB681A6055
:102EF000FB681B6818461437BD4690BDD8040020F7
:102F00003403002090B587B000AF786039600023AB
:102F10007B613B685B78002B46D03968786800F0AD
:102F20008BF80446386800F02FF903469C423BD2E8
:102F30003D4B1B683B6129E03B6903F00303002B19
:102F40000AD13A69394BA3FB02135B09642101FBE7
:102F500003F3D31A002B0BD13A69344BA3FB0213B2
:102F6000DB094FF4C87101FB03F3D31A002B06D120
:102F70007B6903F1F17303F505437B6103E07A6933
:102F80002B4B13447B613B6901333B613B68DB782E
:102F90001946284B1B68642202FB03F30B44653B74
:102FA0003A699A42C8D33AE01F4B1B68FB6029E09C
:102FB000FB6803F00303002B0AD1FA681B4BA3FB49
:102FC00002135B09642101FB03F3D31A002B0BD11D
:102FD000FA68164BA3FB0213DB094FF4C87101FB1F
:102FE00003F3D31A002B06D17B6903F1F17303F5C8
:102FF00005437B6103E07A690D4B13447B61FB68F9
:103000000133FB603B68DB7819460A4B1B6864227E
:1030100002FB03F30B44643BFA689A42C8D37B6912
:1030200018461C37BD4690BD340300201F85EB5168
:103030008033E101D804002080B485B000AF78600F
:1030400039600023FB600123FB726FE0FB7A022BE7
:1030500038D13B68DB781A46484B1B68013B03FBC1
:1030600002F3642202FB03F2454BA3FB02135B094C
:10307000642101FB03F3D31A002B15D13B68DB78E5
:103080001A463E4B1B68013B03FB02F3642202FB22
:1030900003F23B4BA3FB0213DB094FF4C87101FBA6
:1030A00003F3D31A002B06D1FB6803F5181303F5BD
:1030B0006E53FB6037E0FB6803F5131303F52853E9
:1030C000FB6030E0FB7A03F00103DBB2002B02D19E
:1030D000FB7A062B08D9FB7A03F00103DBB2002B45
:1030E00009D0FB7A082B06D9FB6803F51E1303F5FC
:1030F0005063FB6017E0FB7A03F00103DBB2002BA7
:1031000002D0FB7A072B08D9FB7A03F00103DBB26C
:10311000002B08D1FB7A072B05D9FB6803F5231395
:1031200003F5F453FB60FB7A0133FB723B685B7879
:10313000FA7A9A428AD33B689B78013B114A02FB98
:1031400003F31A467B681B7819464FF4616303FB4F
:1031500001F31A44FB681A447B685B7819460B46F6
:103160001B015B1A9B0013447A6892781344FB603E
:10317000FB6818461437BD4680BC7047D804002051
:103180001F85EB518051010080B485B000AF78609D
:103190000023FB600123FB726FE0FB7A022B38D126
:1031A0007B68DB781A46494B1B68013B03FB02F343
:1031B000642202FB03F2464BA3FB02135B0964216A
:1031C00001FB03F3D31A002B15D17B68DB781A4679
:1031D0003E4B1B68013B03FB02F3642202FB03F23C
:1031E0003B4BA3FB0213DB094FF4C87101FB03F354
:1031F000D31A002B06D1FB6803F5181303F56E53A1
:10320000FB6037E0FB6803F5131303F52853FB60FD
:1032100030E0FB7A03F00103DBB2002B02D1FB7A32
:10322000062B08D9FB7A03F00103DBB2002B09D08F
:10323000FB7A082B06D9FB6803F51E1303F55063D0
:10324000FB6017E0FB7A03F00103DBB2002B02D036
:10325000FB7A072B08D9FB7A03F00103DBB2002BC2
:1032600008D1FB7A072B05D9FB6803F5231303F577
:10327000F453FB60FB7A0133FB72164B1B78FA7A2E
:103280009A428AD3144B1B78013B144A02FB03F386
:103290001A46134B1B7819464FF4616303FB01F385
:1032A0001A44FB681A440F4B1B7819460B461B0146
:1032B0005B1A9B0013440C4A12781344FB60FB68B2
:1032C00018461437BD4680BC704700BFD8040020A4
:1032D0001F85EB51A8040020F80300208051010055
:1032E000A40300202E0300209C04002090B585B08C
:1032F00000AFF860B9607A607B685A78104B1B7831
:103300009A4208D17A68B968F86800F057F902461D
:10331000FB681A600DE07968B86800F013F804469D
:103320007A68B968F86800F049F90346E218FB6862
:103330001A60FB681B6818461437BD4690BD00BF75
:10334000A804002080B485B000AF78603960002305
:10335000FB603B689B78002B00F0A8803B689B7863
:10336000013B8E4A02FB03F27B681B7819464FF43F
:10337000616303FB01F31A447B685B7819460B46D3
:103380001B015B1A9B0013447A6892781A44844BA1
:103390001B781946814B03FB01F1824B1B781846C1
:1033A0004FF4616303FB00F319447F4B1B7818460D
:1033B00003461B011B1A9B000B447C4909780B44F4
:1033C0009A4273DA7A4B1B78FB7268E0FB7A0D2B1A
:1033D00001D10123FB72FB7A022B2CD1754B1B68A8
:1033E00003F00303002B0BD1724B1A68724BA3FB43
:1033F00002135B09642101FB03F3D31A002B0CD1E8
:103400006C4B1A686C4BA3FB0213DB094FF4C871B9
:1034100001FB03F3D31A002B06D1FB6803F5181345
:1034200003F56E53FB6037E0FB6803F5131303F5F8
:103430002853FB6030E0FB7A03F00103DBB2002B82
:1034400002D1FB7A062B08D9FB7A03F00103DBB229
:10345000002B09D0FB7A082B06D9FB6803F51E1355
:1034600003F55063FB6017E0FB7A03F00103DBB266
:10347000002B02D0FB7A072B08D9FB7A03F001035B
:10348000DBB2002B08D1FB7A072B05D9FB6803F5CB
:10349000231303F5F453FB60FB7A0133FB72FA7AD2
:1034A0003B685B78013B9A4290D171E0404B1B78BE
:1034B000BB7268E0BB7A0D2B01D10123BB72BB7AD2
:1034C000022B2CD13B4B1B6803F00303002B0BD1C9
:1034D000384B1A68384BA3FB02135B09642101FBCC
:1034E00003F3D31A002B0CD1324B1A68324BA3FBD7
:1034F0000213DB094FF4C87101FB03F3D31A002B4D
:1035000006D1FB6803F5181303F56E53FB6037E033
:10351000FB6803F5131303F52853FB6030E0BB7A17
:1035200003F00103DBB2002B02D1BB7A062B08D9D2
:10353000BB7A03F00103DBB2002B09D0BB7A082B66
:1035400006D9FB6803F51E1303F55063FB6017E013
:10355000BB7A03F00103DBB2002B02D0BB7A072B4E
:1035600008D9BB7A03F00103DBB2002B08D1BB7A88
:10357000072B05D9FB6803F5231303F5F453FB6010
:10358000BB7A0133BB723B685B78BA7A9A4291D1BD
:10359000FB6818461437BD4680BC70478051010057
:1035A000F8030020A40300202E0300209C04002028
:1035B000A8040020340300201F85EB5190B585B08E
:1035C00000AFF860B9607A607B689A786A4B1B78C4
:1035D0009A4207D1B968F86800F0D8F80246FB684B
:1035E0001A60C2E07B689B781A46634B1B78D31A3B
:1035F000002B13DD7B689B781A465F4B1B78D31A30
:10360000013B5E4A02FB03F31C46B968F86800F010
:10361000BDF80346E218FB681A60A6E07B689B7859
:103620001A46554B1B78D31A002B80F29E80544BC0
:103630001B78022B46D1534B1B6803F00303002B6E
:103640000BD1504B1A68504BA3FB02135B0964214A
:1036500001FB03F3D31A002B0CD14A4B1A684A4BD7
:10366000A3FB0213DB094FF4C87101FB03F3D31A68
:10367000002B13D17B689B781D333F4A12789B1A2D
:10368000013B3E4A02FB03F31C46B968F86800F0B0
:103690007DF80346E218FB681A6066E07B689B7859
:1036A0001C33354A12789B1A013B344A02FB03F360
:1036B0001C46B968F86800F069F80346E218FB6830
:1036C0001A6052E02E4B1B7803F00103DBB2002B93
:1036D00003D12B4B1B78062B0AD9294B1B7803F0FF
:1036E0000103DBB2002B17D0254B1B78082B13D915
:1036F0007B689B781E33204A12789B1A013B1F4A35
:1037000002FB03F31C46B968F86800F03FF8034673
:10371000E218FB681A6028E0194B1B7803F00103DC
:10372000DBB2002B03D0164B1B78072B0AD9144BA6
:103730001B7803F00103DBB2002B16D1104B1B7872
:10374000072B12D97B689B781F330B4A12789B1A80
:10375000013B0A4A02FB03F31C46B968F86800F013
:1037600015F80346E218FB681A60FB681B681846E8
:103770001437BD4690BD00BFF80300208051010002
:10378000A8040020340300201F85EB5190B583B0BE
:1037900000AF786039603B681A78254B1B789A42F5
:1037A00007D13968786800F045F802467B681A60EE
:1037B00038E03B681B781A461D4B1B78D31A002B48
:1037C00014DD3B681B781A46194B1B78D31A013B52
:1037D0004FF4616202FB03F31C463968786800F01D
:1037E00029F80346E2187B681A601BE03B681B78E7
:1037F0001A460F4B1B78D31A002B13DA3B681B7841
:1038000018330B4A12789B1A013B4FF4616202FB9A
:1038100003F31C463968786800F00CF80346E21898
:103820007B681A607B681B6818460C37BD4690BDE4
:10383000A403002090B583B000AF786039603B6886
:103840005A78254B1B789A4207D13968786800F07E
:1038500045F802467B681A6038E03B685B781A4698
:103860001D4B1B78D31A002B14DD3B685B781A467E
:10387000194B1B78D31A5A1E13461B019B1A9B0027
:103880001C463968786800F029F80346E2187B681E
:103890001A601BE03B685B781A460F4B1B78D31A03
:1038A000002B13DA3B685B783C330B4A12789B1A87
:1038B0005A1E13461B019B1A9B001C4639687868E8
:1038C00000F00CF80346E2187B681A607B681B68FE
:1038D00018460C37BD4690BD2E03002080B483B03F
:1038E00000AF786039603B689A78194B1B789A4230
:1038F00003D17B6800221A6022E03B689B781A465D
:10390000134B1B78D31A002B09DD3B689B781A46B2
:103910000F4B1B78D31A1A467B681A6010E03B687D
:103920009B781A460A4B1B78D31A002B08DA3B689F
:103930009B783C33064A12789B1A1A467B681A60B9
:103940007B681B6818460C37BD4680BC704700BFBB
:103950009C040020000000002DE9B04392B000AFAD
:10396000786007A3D3E90023C7E9102306A3D3E9AE
:103970000023C7E90C2340F24623FB63A9E000BF04
:1039800052B81E85B370244150455254FB21094062
:10399000D7E90C0102460B46FCF720FC02460B4619
:1039A00010461946DEA3D3E90023FCF7F7FE0246D2
:1039B0000B4614461D46FB6BA3F2B9331846FCF7C1
:1039C00049FD02460B4620462946FCF7BDFD02464E
:1039D0000B4610461946D4A3D3E90023FCF7FEFB9F
:1039E00002460B461046194608F0A6FAD0A3D3E9C2
:1039F0000023FCF7A9FD02460B4614461D46D7E9F5
:103A00000C0102460B46FCF7E9FB02460B4610464A
:103A10001946C9A3D3E90023FCF7C0FE02460B46B2
:103A200090469946FB6BA3F2B9331846FCF712FD9A
:103A300002460B4640464946FCF786FD02460B46C9
:103A400010461946BEA3D3E90023FCF7C7FB024684
:103A50000B461046194608F06FFABBA3D3E90023C2
:103A6000FCF772FD02460B4620462946FCF7B6FBE2
:103A700002460B4610461946B5A3D3E90023FCF7CE
:103A8000ADFB02460B46104619464FF00002C44BF0
:103A9000FCF75AFD02460B46104619464FF000024D
:103AA000C04BFCF751FD02460B46104619464FF03D
:103AB0000002BC4BFCF748FD02460B46D7E910015B
:103AC000FCF78CFB02460B46C7E91023FB6B013366
:103AD000FB637B681B681846FCF7BCFC02460B4680
:103AE000D7E91001FCF7ACFF0346002B7FF450AF81
:103AF0007B681B681846FCF7ADFC02460B46D7E90D
:103B00001001FCF789FF0346002B02D1FB6B013B40
:103B1000FB63D7E90C0102460B46FCF75FFB02464C
:103B20000B46104619467EA3D3E90023FCF736FE68
:103B300002460B4614461D46FB6BA3F2B9331846EA
:103B4000FCF788FC02460B4620462946FCF7FCFCA5
:103B500002460B46104619467FA3D3E90023FCF723
:103B60003BFB02460B461046194608F0E5F97CA3DC
:103B7000D3E90023FCF7E8FC02460B4614461D4639
:103B8000D7E90C0102460B46FCF728FB02460B4620
:103B90001046194674A3D3E90023FCF7FFFD024643
:103BA0000B4690469946FB6BA3F2B9331846FCF7D7
:103BB00051FC02460B4640464946FCF7C5FC02460E
:103BC0000B46104619466AA3D3E90023FCF706FB0F
:103BD00002460B461046194608F0AEF966A3D3E933
:103BE0000023FCF7B1FC02460B4620462946FCF7B1
:103BF000F5FA02460B4614461D46FB6BA3F2B93399
:103C00001846FCF727FC5EA3D3E90023FCF79CFCD5
:103C100002460B4620462946FCF7E0FA02460B46D0
:103C20001046194658A3D3E90023FCF7D7FA0246F9
:103C30000B46104619464FF00002594BFCF784FC26
:103C400002460B46104619464FF00002554BFCF752
:103C50007BFC02460B46104619464FF00002514BC2
:103C6000FCF772FC02460B461046194648A3D3E9FE
:103C70000023FCF7B3FA02460B46C7E90A23D7E94B
:103C80000C0102460B46FCF7A9FA02460B46104609
:103C9000194623A3D3E90023FCF780FD02460B4617
:103CA00014461D46FB6BA3F2B9331846FCF7D2FB52
:103CB00002460B4620462946FCF746FC02460B46C8
:103CC0001046194634A3D3E90023FCF785FA0246CF
:103CD0000B461046194608F02FF921A3D3E900231B
:103CE000FCF732FC02460B4614461D46D7E90C0190
:103CF00002460B46FCF772FA02460B46104619467E
:103D000019A3D3E90023FCF749FD02460B46904670
:103D10009946FB6BA3F2B933184645E0AFF3008038
:103D200022FDF675E0BC2840DF4F8D976E12D33F21
:103D3000CF66D5E76A2BB63F4FAF946588E32B403B
:103D4000DD2406819543E33F1973D712F241C73F43
:103D5000F241CF66D5873D40D122DBF97E6AF83F3C
:103D600004E78C28ED0DC63F164D672783E32B40F3
:103D70004260E5D0225B1440F31FD26F5F07DA3F49
:103D8000B79FE7AAD4873D40A52C431CEBE2154022
:103D9000000000C0A136CC41D122DBF97E6AF63F9B
:103DA0000000384000004E40FCF754FB02460B4632
:103DB00040464946FCF7C8FB02460B4610461946EA
:103DC000E3A3D3E90023FCF709FA02460B461046A9
:103DD000194608F0B1F8E0A3D3E90023FCF7B4FBDF
:103DE00002460B4620462946FCF7F8F902460B46E8
:103DF00014461D46FB6BA3F2B9331846FCF72AFBA9
:103E0000D7A3D3E90023FCF79FFB02460B462046CD
:103E10002946FCF7E3F902460B4610461946D2A3A1
:103E2000D3E90023FCF7DAF902460B46104619469F
:103E30004FF00002E44BFCF787FB02460B461046AE
:103E400019464FF00002E14BFCF77EFB02460B46A1
:103E5000104619464FF00002DC4BFCF775FB02469A
:103E60000B4610461946C2A3D3E90023FCF7B6F966
:103E700002460B46C7E90823D7E90C0102460B4668
:103E8000FCF7ACF902460B4610461946BAA3D3E933
:103E90000023FCF783FC02460B4614461D46FB6BD1
:103EA000A3F2B9331846FCF7D5FA02460B46204672
:103EB0002946FCF749FB02460B4610461946B0A3BB
:103EC000D3E90023FCF788F902460B461046194651
:103ED00008F032F8ACA3D3E90023FCF735FB024627
:103EE0000B4614461D46D7E90C0102460B46FCF76B
:103EF00075F902460B4610461946A5A3D3E90023DF
:103F0000FCF74CFC02460B4690469946FB6BA3F22D
:103F1000B9331846FCF79EFA02460B46404649461E
:103F2000FCF712FB02460B46104619469AA3D3E94A
:103F30000023FCF753F902460B461046194607F0DA
:103F4000FBFF97A3D3E90023FCF7FEFA02460B46DA
:103F500020462946FCF742F902460B4614461D4608
:103F6000FB6BA3F2B9331846FCF774FA7CA3D3E9D0
:103F70000023FCF7E9FA02460B4620462946FCF7E7
:103F80002DF902460B461046194687A3D3E90023B4
:103F9000FCF724F902460B46104619464FF0000282
:103FA000894BFCF7D1FA02460B46104619464FF0F2
:103FB0000002864BFCF7C8FA02460B46104619462B
:103FC0004FF00002814BFCF7BFFA02460B46104649
:103FD000194667A3D3E90023FCF700F902460B4614
:103FE000C7E90623D7E90C0102460B46FCF7F6F8B1
:103FF00002460B46104619465FA3D3E90023FCF79F
:10400000CDFB02460B4614461D46FB6BA3F2B933AB
:104010001846FCF71FFA02460B4620462946FCF7D5
:1040200093FA02460B461046194661A3D3E90023D2
:10403000FCF7D2F802460B461046194607F07CFF03
:1040400051A3D3E90023FCF77FFA02460B4614463E
:104050001D46D7E90C0102460B46FCF7BFF80246A5
:104060000B46104619464AA3D3E90023FCF796FBFA
:1040700002460B4690469946FB6BA3F2B9331846AD
:10408000FCF7E8F902460B4640464946FCF75CFA65
:1040900002460B461046194647A3D3E90023FCF716
:1040A0009DF802460B461046194607F045FF2AA325
:1040B000D3E90023FCF748FA02460B46204629467E
:1040C000FCF78CF802460B4614461D46FB6BA3F228
:1040D000B9331846FCF7BEF921A3D3E90023FCF756
:1040E00033FA02460B4620462946FCF777F802468B
:1040F0000B461046194632A3D3E90023FCF76EF8AD
:1041000002460B46104619464FF000022E4BFCF7B4
:104110001BFA02460B46104619464FF000022B4B85
:10412000FCF712FA02460B46104619464FF0000201
:10413000264BFCF709FA02460B46104619460CA31B
:10414000D3E90023FCF74AF802460B4640E000BFE3
:1041500008AC1C5A643BDF3F7F6ABC749318E43F91
:10416000B79FE7AAD4873D409FCDAACFD5B62940B7
:10417000000000C0A136CC4122FDF675E0BC28400D
:10418000273108AC1C5AF43F04E78C28ED0DC63FDC
:10419000164D672783E32B40C74B378941600140A9
:1041A000F31FD26F5F07DA3FCD3B4ED1913C3440D5
:1041B0007D3F355EBA49F23F0C022B8716D90E407F
:1041C000598638D6C59D3B400000384000004E401F
:1041D000C7E90423D7E90C0102460B46FBF7FEFFB3
:1041E00002460B461046194699A3D3E90023FCF773
:1041F000D5FA02460B4614461D46FB6BA3F56E73BB
:104200001846FCF727F902460B4620462946FCF7DC
:104210009BF902460B46104619468FA3D3E90023AB
:10422000FBF7DAFF02460B461046194607F084FEFC
:104230008BA3D3E90023FCF787F902460B4614460B
:104240001D46D7E90C0102460B46FBF7C7FF0246A5
:104250000B461046194684A3D3E90023FCF79EFAC7
:1042600002460B4690469946FB6BA3F56E731846C3
:10427000FCF7F0F802460B4640464946FCF764F965
:1042800002460B461046194679A3D3E90023FBF7F3
:10429000A5FF02460B461046194607F04DFE76A3D1
:1042A000D3E90023FCF750F902460B462046294685
:1042B000FBF794FF02460B4614461D46FB6BA3F525
:1042C0006E731846FCF7C6F86DA3D3E90023FCF71C
:1042D0003BF902460B4620462946FBF77FFF024684
:1042E0000B461046194668A3D3E90023FBF776FF77
:1042F00002460B46104619464FF00002664BFCF78B
:1043000023F902460B46104619464FF00002634B54
:10431000FCF71AF902460B46104619464FF0000208
:104320005E4BFCF711F902460B461046194658A39E
:10433000D3E90023FBF752FF02460B46C7E90223ED
:104340007B681B681846FCF785F802460B46D7E9E0
:104350000A01FCF775FB0346002B11D07B681B6834
:104360001846FCF777F802460B46D7E90801FCF738
:104370007BFB0346002B03D0494B01221A7061E0FE
:104380007B681B681846FCF765F802460B46D7E9C0
:104390000801FCF755FB0346002B11D07B681B6816
:1043A0001846FCF757F802460B46D7E90601FCF71A
:1043B0005BFB0346002B03D0394B02221A7041E00D
:1043C0007B681B681846FCF745F802460B46D7E9A0
:1043D0000601FCF735FB0346002B11D07B681B68F8
:1043E0001846FCF737F802460B46D7E90401FCF7FC
:1043F0003BFB0346002B03D0294B03221A7021E01C
:104400007B681B681846FCF725F802460B46D7E97F
:104410000401FCF715FB0346002B00D112E07B687A
:104420001B681846FCF716F802460B46D7E902014E
:10443000FCF71AFB0346002B00D103E0184B0422C3
:104440001A70FFE700BF4837BD46BDE8B08300BF24
:1044500022FDF675E0BC2840D122DBF97E6AF83FE8
:1044600004E78C28ED0DC63F164D672783E32B40EC
:104470004260E5D0225B1440F31FD26F5F07DA3F42
:10448000B79FE7AAD4873D40A52C431CEBE215401B
:10449000000000C0A136CC410000384000004E4072
:1044A000CE0500200000000080B59CB000AF786011
:1044B0000023BB6540F2B273FB6600237B650023DB
:1044C0003B650123BB6600237B6601233B664623D5
:1044D000FB657B684E331B781A46BB6D13431B028A
:1044E000BB657B684F331B781A46BB6D13431B02B9
:1044F000BB657B6850331B781A46BB6D13431B02A8
:10450000BB657B6851331B781A46BB6D1343BB6593
:10451000B54ABB6D9B1AFB64FB6CA3F52853303B7B
:10452000B24A1360B14B1B681846FBF793FFA8A370
:10453000D3E90023FCF732F902460B46C7E9102302
:10454000AA4B1B68AA4AA2FB03231B0CFB63F86B54
:10455000FBF780FF02460B46D7E91001FBF73CFE54
:1045600002460B46104619464FF00002A14BFBF7DE
:10457000EBFF02460B4610461946FCF77FFA03464E
:10458000DAB29D4B1A70994B1B681846FBF762FF15
:1045900091A3D3E90023FCF701F902460B46C7E9D2
:1045A0000C23924B1B68954AA2FB0323DB0AFB6298
:1045B000F86AFBF74FFF02460B46D7E90C01FBF701
:1045C0000BFE02460B46104619464FF000028C4B7C
:1045D000FBF7BAFF02460B4610461946FCF74EFAA7
:1045E0000346DAB2874B1A70804B1B681846FBF7FC
:1045F00031FF4FF00002824BFCF7D0F802460B4629
:10460000C7E90823794B1B687F4AA2FB03235B0998
:10461000FB61F869FBF71EFF02460B46D7E908016C
:10462000FBF7DAFD02460B46104619464FF0000232
:10463000734BFBF789FF02460B4610461946FCF701
:104640001DFA0346DAB2714B1A70684B1B6803F50A
:104650007D3380331846FBF7FDFE61A3D3E90023C9
:10466000FCF79CF802460B46C7E904235F4B1B6826
:1046700003F57D338033664AA2FB03239B0CFB606A
:10468000F868FBF7E7FE02460B46D7E90401FBF7A3
:10469000A3FD02460B46104619464FF000025D4B43
:1046A000FBF752FF02460B46104619464FF0000238
:1046B000594BFBF793FD02460B4610461946FCF793
:1046C000DDF90346DAB2554B1A705BE07B6E03F5F9
:1046D000A83303F5C0737B663B6E01333B663B6ECC
:1046E000202B3AD03B6E1F2B0FD1BB6E03F0010382
:1046F000002B02D1BB6E062B2FD9BB6E03F001033A
:10470000002B02D0BB6E082B27D83B6E1D2B1ED171
:10471000BB6E022B1BD1FB6E03F00303002B0AD1EF
:10472000FA6E3F4BA3FB02135B09642101FB03F309
:10473000D31A002B0BD1FA6E394BA3FB0213DB0902
:104740004FF4C87101FB03F3D31A002B05D13B6E64
:104750001E2B17D1BB6E022B14D1BB6E0133BB666F
:1047600001233B66BB6E0D2B0CD1FB6E0133FB6648
:10477000FB6D0133FB65FB6D642B01D10023FB65F1
:104780000123BB66194B1B687A6E9A429ED9174B60
:104790001B687A6E9A4204D13B6EDAB2214B1A70D2
:1047A000A2E03B6E012B40F09580BB6E013BBB66E7
:1047B000BB6E002B3BD10C23BB66FB6E013BFB6643
:1047C000FB6D002B30D16323FB6530E0AFF300803D
:1047D000000000000018F540000000000020AC4080
:1047E0000000000000752241807EAA83A4040020FE
:1047F00007452EC200003840A4030020C5B3A29193
:1048000000004E402E030020898888889C040020E8
:104810004DDEF56E00001C400000F03FF10400206A
:104820001F85EB51F8030020FB6D013BFB65BB6E60
:10483000DAB2344B1A70BB6E022B23D1FB6E03F03D
:104840000303002B0AD1FA6E2F4BA3FB02135B0963
:10485000642101FB03F3D31A002B0BD1FA6E2A4B10
:10486000A3FB0213DB094FF4C87101FB03F3D31A56
:10487000002B03D1254B1D221A7035E0234B1C223F
:104880001A7031E0BB6E03F00103002B02D1BB6E46
:10489000062B07D9BB6E03F00103002B06D0BB6EBD
:1048A000082B03D9194B1E221A701DE0BB6E03F0B2
:1048B0000103002B02D0BB6E072B07D9BB6E03F0A0
:1048C0000103002B10D1BB6E072B0DD90F4B1F22FC
:1048D0001A7009E03B6EDBB2013BDAB20B4B1A7087
:1048E000BB6EDAB2074B1A70094AFB6E1360FB6DA0
:1048F000DAB2084B1A700848FFF72EF800BF70377D
:10490000BD4680BDA80400201F85EB51F8030020A0
:1049100034030020F0040020A404002080B483B0FD
:1049200000AF7860034B01221A7000BF0C37BD4600
:1049300080BC70472403002080B483B000AF78604F
:104940003960FEE780B582B000AF244B1B6E234A6E
:1049500043F001031366214B1B6E03F001037B60E0
:104960007B681E4B9B6D1D4A43F0805393651B4B28
:104970009B6D03F080533B603B68032000F076FAA8
:10498000002200216FF00B0000F07BFA00220021D2
:104990006FF00A0000F075FA002200216FF00900A4
:1049A00000F06FFA002200216FF0040000F069FAB5
:1049B000002200216FF0030000F063FA00220021C2
:1049C0006FF0010000F05DFA002200214FF0FF308F
:1049D00000F057FA00BF0837BD4680BD0010024006
:1049E00080B588B000AF78607B681B68124A93423C
:1049F0001DD14FF4C063FB6012233B6101237B6137
:104A00000323BB610423FB6107F10C0319464FF03C
:104A1000904000F0BFFC094B9B6D084A43F4001323
:104A20009365064B9B6D03F40013BB60BB6800BF2E
:104A30002037BD4680BD00BF00540040001002403A
:104A400080B483B000AF78607B681B68074A9342EC
:104A500007D1074BD3F89030054A43F40043C2F81E
:104A6000903000BF0C37BD4680BC70470028004026
:104A70000010024080B588B000AF78607B681B688A
:104A8000274A934247D1274B9B6D264A43F4003374
:104A90009365244B9B6D03F40033BB60BB680C2310
:104AA000FB6002233B6100237B610323BB6107237F
:104AB000FB6107F10C0319464FF0904000F06AFCCF
:104AC000194B1A4A1A60184B02225A60164B0022E0
:104AD0009A60154B0022DA60134B80221A61124B48
:104AE00000225A61104B00229A610F4B0022DA61BA
:104AF0000D4B00221A620C4800F022FA0346002BEC
:104B000003D0CE210A48FFF717FF7B68064ADA6612
:104B1000054A7B68936200BF2037BD4680BD00BF59
:104B20000044004000100240B00300206C0002402E
:104B300024D5000880B400AF00BFBD4680BC7047DC
:104B400080B400AFFEE780B400AFFEE780B400AFF2
:104B5000FEE780B400AFFEE780B400AF00BFBD4603
:104B600080BC704780B400AF00BFBD4680BC7047BA
:104B700080B400AF00BFBD4680BC704780B500AFB9
:104B800000F076F800F0D0F900BF80BD80B500AF2E
:104B9000024800F020FB00BF80BD00BFB003002032
:104BA00080B400AF124B1B68114A43F0010313603D
:104BB0000F4B00229A600E4B1B680D4A23F0A8533E
:104BC00023F4102313600A4B4FF48052DA60084B31
:104BD0001B68074A23F480231360054B00229A6167
:104BE000044B4FF000629A6000BFBD4680BC704726
:104BF0000010024000ED00E080B582B000AF00235D
:104C0000FB71032000F032F9002000F00DF803469C
:104C1000002B02D00123FB7101E0FFF793FEFB792B
:104C200018460837BD4680BD80B584B000AF7860B7
:104C30000023FB730C4B1B680C4AA2FB03239B094C
:104C4000184600F048F90346002B02D00123FB73FD
:104C500005E0002279684FF0FF3000F012F9FB7B8D
:104C600018461037BD4680BD30010020D34D62107C
:104C700080B400AF044B1B680133034A136000BFCC
:104C8000BD4680BC704700BFD005002080B400AF97
:104C9000024B1B681846BD4680BC7047D0050020FB
:104CA00080B584B000AF7860FFF7F0FFB8607B6834
:104CB000FB60FB68B3F1FF3F02D0FB680133FB6090
:104CC00000BFFFF7E3FF0246BB68D31AFA689A42B7
:104CD000F7D800BF00BF1037BD4680BD80B485B097
:104CE00000AF78607B6803F00703FB600C4BDB6868
:104CF000BB60BA684FF6FF031340BB60FB681A0243
:104D0000BB68134343F0BF6343F40033BB60044A02
:104D1000BB68D36000BF1437BD4680BC704700BF7E
:104D200000ED00E080B400AF044BDB681B0A03F029
:104D300007031846BD4680BC704700BF00ED00E089
:104D400080B483B000AF0346FB71FB7903F01F0210
:104D5000064997F907305B09012000FA02F241F891
:104D6000232000BF0C37BD4680BC704700E100E047
:104D700080B483B000AF03463960FB7197F9073008
:104D8000002B0BDA3B68DAB20C49FB7903F00F0316
:104D9000043B1201D2B20B441A7609E03B68DAB246
:104DA000074997F907301201D2B20B4483F8002368
:104DB00000BF0C37BD4680BC704700BF00ED00E06F
:104DC00000E100E080B489B000AFF860B9607A60BB
:104DD000FB6803F00703FB61FB69C3F10703042BC6
:104DE00028BF0423BB61FB690433062B02D9FB698E
:104DF000033B00E000237B614FF0FF32BB6902FA06
:104E000003F3DA43BB681A407B699A404FF0FF31E5
:104E10007B6901FA03F3D9437B680B4013431846BF
:104E20002437BD4680BC704780B582B000AF786043
:104E30007B68013BB3F1807F01D301230FE00A4A75
:104E40007B68013B53600F214FF0FF30FFF790FF6D
:104E5000054B00229A60044B07221A600023184673
:104E60000837BD4680BD00BF10E000E080B582B0CD
:104E700000AF78607868FFF731FF00BF0837BD46A4
:104E800080BD80B586B000AF0346B9607A60FB7321
:104E900000237B61FFF746FF78617A68B96878691B
:104EA000FFF790FF024697F90F3011461846FFF7BB
:104EB0005FFF00BF1837BD4680BD80B582B000AF30
:104EC0000346FB7197F907301846FFF739FF00BF1B
:104ED0000837BD4680BD80B582B000AF7860786885
:104EE000FFF7A2FF034618460837BD4680BD000005
:104EF00080B483B000AF78607B68042B06D1094B87
:104F00001B68084A43F00403136005E0054B1B6867
:104F1000044A23F00403136000BF0C37BD4680BC75
:104F2000704700BF10E000E080B500AF00F002F86D
:104F300000BF80BD80B400AF00BFBD4680BC7047DD
:104F400080B485B000AF78607B68002B01D101236D
:104F500098E07B681B681A464D4B9A420FD87B68D5
:104F60001B681A464B4B13444B4AA2FB03231B09F5
:104F70009A007B685A647B68484A1A640EE07B6832
:104F80001B681A46464B1344434AA2FB03231B09E2
:104F90009A007B685A647B68424A1A647B680222E2
:104FA00083F825207B681B681B68FB60FB6823F483
:104FB000FF4323F07003FB607B689A687B68DB68C3
:104FC0001A437B681B691A437B685B691A437B68D9
:104FD0009B691A437B68DB691A437B681B6A13432E
:104FE000FA681343FB607B681B68FA681A607B6889
:104FF0009B68B3F5804F39D07B681B6C274A93427E
:105000001AD1294B1A687B685B6C03F01C030F21D3
:1050100001FA03F3DB43244913400B60224B1A6867
:105020007B6859687B685B6C03F01C0301FA03F32F
:105030001D4913430B6019E01C4B1A687B685B6CBD
:1050400003F01C030F2101FA03F3DB43174913405C
:105050000B60164B1A687B6859687B685B6C03F0C1
:105060001C0301FA03F3114913430B607B68002210
:10507000DA637B68012283F825207B68002283F8AD
:105080002420002318461437BD4680BC704700BF5B
:1050900007040240F8FFFDBFCDCCCCCC000002409D
:1050A000F8FBFDBF00040240A8000240A804024033
:1050B00080B586B000AFF860B9607A603B600023CD
:1050C000FB75FB6893F82430012B01D102234BE0E0
:1050D000FB68012283F82420FB6893F82530DBB2BB
:1050E000012B3AD1FB68022283F82520FB680022BD
:1050F000DA63FB681B681A68FB681B6822F0010210
:105100001A603B687A68B968F86800F013F9FB68C0
:105110001B6B002B08D0FB681B681A68FB681B68B8
:1051200042F00E021A600FE0FB681B681A68FB6809
:105130001B6822F004021A60FB681B681A68FB688F
:105140001B6842F00A021A60FB681B681A68FB6859
:105150001B6842F001021A6005E0FB68002283F838
:1051600024200223FB75FB7D18461837BD4680BD01
:1051700080B485B000AF78600023FB737B68002BA0
:1051800001D1012322E07B681B681A687B681B68D9
:1051900022F00E021A607B681B681A687B681B6825
:1051A00022F001021A607B685B6C03F01C027B68D2
:1051B0001B6C012101FA02F25A607B68012283F81C
:1051C00025207B68002283F82420FB7B18461437B7
:1051D000BD4680BC704780B584B000AF78607B6806
:1051E0001B6C1B68FB607B681B681B68BB607B6873
:1051F0005B6C03F01C0304229A40FB681340002BF5
:1052000026D0BB6803F00403002B21D07B681B6809
:105210001B6803F02003002B07D17B681B681A680A
:105220007B681B6822F004021A607B685B6C03F0E9
:105230001C027B681B6C042101FA02F25A607B6835
:105240001B6B002B71D07B681B6B786898476CE0F8
:105250007B685B6C03F01C0302229A40FB681340DE
:10526000002B2ED0BB6803F00203002B29D07B68F3
:105270001B681B6803F02003002B0BD17B681B68A5
:105280001A687B681B6822F00A021A607B68012298
:1052900083F825207B685B6C03F01C027B681B6C29
:1052A000022101FA02F25A607B68002283F824206E
:1052B0007B68DB6A002B38D07B68DB6A78689847AC
:1052C00033E07B685B6C03F01C0308229A40FB68A8
:1052D0001340002B2AD0BB6803F00803002B25D015
:1052E0007B681B681A687B681B6822F00E021A60D4
:1052F0007B685B6C03F01C027B681B6C012101FA6C
:1053000002F25A607B680122DA637B68012283F82B
:1053100025207B68002283F824207B685B6B002BB0
:1053200004D07B685B6B7868984700BF00BF10377C
:10533000BD4680BD80B485B000AFF860B9607A60CA
:105340003B60FB685B6C03F01C02FB681B6C01217B
:1053500001FA02F25A60FB681B683A685A60FB68FF
:105360009B68102B08D1FB681B687A689A60FB6801
:105370001B68BA68DA6007E0FB681B68BA689A6065
:10538000FB681B687A68DA6000BF1437BD4680BCD2
:105390007047000080B487B000AF786039600023A8
:1053A0007B6148E13B681A6801217B6901FA03F3DC
:1053B0001340FB60FB68002B00F03A813B685B68A0
:1053C000022B03D03B685B68122B23D17B69DA0880
:1053D0007B68083253F822303B617B6903F0070396
:1053E0009B000F2202FA03F3DB433A6913403B614F
:1053F0003B681A697B6903F007039B0002FA03F319
:105400003A6913433B617B69DA087B680832396982
:1054100043F822107B681B683B617B695B000322B9
:1054200002FA03F3DB433A6913403B613B685B6874
:1054300003F003027B695B0002FA03F33A6913434A
:105440003B617B683A691A603B685B68012B0BD053
:105450003B685B68022B07D03B685B68112B03D06D
:105460003B685B68122B30D17B689B683B617B6932
:105470005B00032202FA03F3DB433A6913403B610A
:105480003B68DA687B695B0002FA03F33A6913430D
:105490003B617B683A699A607B685B683B6101228B
:1054A0007B6902FA03F3DB433A6913403B613B68D3
:1054B0005B681B0903F001027B6902FA03F33A6996
:1054C00013433B617B683A695A607B68DB683B61E8
:1054D0007B695B00032202FA03F3DB433A69134062
:1054E0003B613B689A687B695B0002FA03F33A69A7
:1054F00013433B617B683A69DA603B685B6803F0A1
:105500008053002B00F09480524B1B6E514A43F0A5
:10551000010313664F4B1B6E03F00103BB60BB68B6
:105520004D4A7B699B08023352F823303B617B690B
:1055300003F003039B000F2202FA03F3DB433A69F3
:1055400013403B617B68B3F1904F0DD07B68434AB9
:10555000934207D07B68424A934201D1022304E080
:10556000072302E0012300E000237A6902F003022E
:10557000920093403A6913433B6137497B699B082A
:1055800002333A6941F82320364B1B683B61FB68C4
:10559000DB433A6913403B613B685B6803F480334B
:1055A000002B03D03A69FB6813433B612D4A3B69EA
:1055B00013602C4B5B683B61FB68DB433A6913402B
:1055C0003B613B685B6803F40033002B03D03A690E
:1055D000FB6813433B61234A3B695360214B9B6843
:1055E0003B61FB68DB433A6913403B613B685B68A6
:1055F00003F48013002B03D03A69FB6813433B612B
:10560000184A3B699360174BDB683B61FB68DB43DF
:105610003A6913403B613B685B6803F40013002B5D
:1056200003D03A69FB6813433B610E4A3B69D36080
:105630007B6901337B613B681A687B6922FA03F35B
:10564000002B7FF4AFAE00BF00BF1C37BD4680BC4F
:10565000704700BF001002400000014000040048F5
:10566000000800480004014080B582B000AF7860B7
:105670007B68002B01D1012381E07B6893F84130E6
:10568000DBB2002B06D17B68002283F840207868CB
:10569000FFF7A6F97B68242283F841207B681B680A
:1056A0001A687B681B6822F001021A607B685A68DE
:1056B0007B681B6822F070621A617B681B689A68BD
:1056C0007B681B6822F400429A607B68DB68012BD0
:1056D00007D17B689A687B681B6842F400429A6035
:1056E00006E07B689A687B681B6842F404429A6013
:1056F0007B68DB68022B04D17B681B684FF4006277
:105700005A607B681B685B687A68126843F00073B4
:1057100043F4004353607B681B68DA687B681B684E
:1057200022F40042DA607B681A697B685B6942EAAE
:1057300003017B689B691A027B681B680A43DA6075
:105740007B68D9697B681A6A7B681B680A431A60A0
:105750007B681B681A687B681B6842F001021A604C
:105760007B6800225A647B68202283F841207B6892
:1057700000221A637B68002283F842200023184627
:105780000837BD4680BD000080B588B002AFF86024
:105790007A601A460B467B8113463B81FB6893F87F
:1057A0004130DBB2202B40F0DA80FB6893F84030C8
:1057B000012B01D10223D3E0FB68012283F84020B2
:1057C000FFF764FA78617B690093192301224FF493
:1057D0000041F86800F0EFF80346002B01D00123E8
:1057E000BEE0FB68212283F84120FB68102283F889
:1057F0004220FB6800225A64FB687A685A62FB68A0
:105800003A895A85FB6800225A63FB685B8D9BB21C
:10581000FF2B0ED9FB68FF221A85FB681B8DDAB2BD
:105820007989514B00934FF08073F86800F0E6F9E6
:105830006CE0FB685B8D9AB2FB681A85FB681B8D78
:10584000DAB27989484B00934FF00073F86800F0A2
:10585000D5F95BE07A69396AF86800F0ECF803463C
:10586000002B01D001237BE0FB685B6A1A78FB68A0
:105870001B689A62FB685B6A5A1CFB685A62FB6889
:105880005B8D9BB2013B9AB2FB685A85FB681B8D0E
:10589000013B9AB2FB681A85FB685B8D9BB2002BBB
:1058A00034D0FB681B8D002B30D17B6900933B6AA1
:1058B00000228021F86800F07EF80346002B01D01A
:1058C00001234DE0FB685B8D9BB2FF2B0ED9FB687B
:1058D000FF221A85FB681B8DDAB2798900230093B9
:1058E0004FF08073F86800F089F90FE0FB685B8D7A
:1058F0009AB2FB681A85FB681B8DDAB2798900239E
:1059000000934FF00073F86800F078F9FB685B8D46
:105910009BB2002B9ED17A69396AF86800F0CBF807
:105920000346002B01D001231AE0FB681B682022EC
:10593000DA61FB681B685968FB681A680B4B0B40FF
:105940005360FB68202283F84120FB68002283F823
:105950004220FB68002283F84020002300E002235D
:1059600018461837BD4680BD0020008000E800FEC4
:1059700080B483B000AF78607B681B689B6903F0DC
:105980000203022B03D17B681B6800229A627B68AA
:105990001B689B6903F00103012B07D07B681B6820
:1059A0009A697B681B6842F001029A6100BF0C375C
:1059B000BD4680BC704780B584B000AFF860B96068
:1059C0003B601346FB7122E03B68B3F1FF3F1ED002
:1059D000FFF75CF90246BB69D31A3A689A4202D3D0
:1059E0003B68002B13D1FB685B6C43F02002FB6823
:1059F0005A64FB68202283F84120FB68002283F868
:105A00004220FB68002283F8402001230FE0FB685E
:105A10001B689A69BB681340BA689A420CBF01239D
:105A20000023DBB21A46FB799A42CDD000231846F8
:105A30001037BD4680BD80B584B000AFF860B96056
:105A40007A602CE07A68B968F86800F071F803466B
:105A5000002B01D001232AE0BB68B3F1FF3F1ED029
:105A6000FFF714F902467B68D31ABA689A4202D348
:105A7000BB68002B13D1FB685B6C43F02002FB6812
:105A80005A64FB68202283F84120FB68002283F8D7
:105A90004220FB68002283F84020012307E0FB68D6
:105AA0001B689B6903F00203022BCBD1002318462D
:105AB0001037BD4680BD80B584B000AFF860B960D6
:105AC0007A6028E07A68B968F86800F031F803462F
:105AD000002B01D0012326E0FFF7D8F802467B68AF
